:04000000B5EF0EF05A
:101D5200BE0FBD0F670F660F5E0F5D0F550F540F5D
:101D62000001100120013001380EF66E1F0EF76ED1
:101D7200000EF86E01EE00F010EEC8F00900F5CF8B
:101D8200EEFFE550E150FAE1520EF66E1D0EF76ECF
:101D9200000EF86E00EE01F010EE18F00900F5CF1B
:101DA200EEFFE550E150FAE1000146EF0FF00C0EB4
:101DB200BD6E000EB66E0C0E666E000E646E0C0EDC
:101DC2000F015D6F000E5B6F0C0E546F000E496FBA
:101DD200000E486F000EBC6EBB68060EBA6E000E97
:101DE200896E000E8A6E000E8B6E000E386F000E2A
:101DF200396F000E3A6F000E926E000E936E000E57
:101E0200946E12001F6E1F50040DF350010F206ECE
:101E12002050D96EDA6A020ED926DECF1BF0DDCF52
:101E22001CF01BC0D9FF1CC0DAFFCF0EDF1619C091
:101E32001BF01B3AF00E1B16300E1B162050D96EEB
:101E4200DA6A020ED926DECF1CF0DDCF1DF01CC0EF
:101E5200D9FF1DC0DAFF1B50DF122050D96EDA6A9B
:101E6200DECF1BF0DDCF1CF01BC0D9FF1CC0DAFF98
:101E720019C01DF01AC01EF0D8901E321D32D89023
:101E82001E321D321D50DF6E1200520ED36ED8EC80
:101E92000EF0000E226E2250020DF350110F236E2F
:101EA2002350D96EDA6ADF50216E2150020D000EE6
:101EB200F324D96E010EF420DA6EDECF19F0DDCFF5
:101EC2001AF0225003EC0FF02350D96EDA6A010E99
:101ED200D926DF50D8B411D02350D96EDA6ADF2A5E
:101EE2002350D96EDA6A620EDF6418D02350D96E9D
:101EF200DA6A010ED926000E10D02350D96EDA6AA2
:101F0200DF062350D96EDA6ADF50D8A407D02350F7
:101F1200D96EDA6A010ED926010EDF6E222A030E6D
:101F22002264B9D7680E216EE40EE82EFED7212E68
:101F3200FCD700D0AED70000000001000200030071
:101F420004000500070008000A000C000F00110041
:101F5200140017001A001E002100250029002D0080
:101F6200320036003B00400045004B005000560056
:101F72005C00620069006F0076007D0085008C00C5
:101F820094009C00A400AC00B400BD00C600CF00C9
:101F9200D800E200EC00F60000010A0115011F0161
:101FA2002A01350141014C015801640170017D0192
:101FB20089019601A301B001BE01CB01D901E7015C
:101FC200F50104021202210230023F024F025F02B7
:101FD2006E027E028F029F02B002C102D202E302AF
:101FE200F502060318032A033D034F036203750338
:0E1FF20088039B03AF03C303D603EB03FF0377
:020000040030CA
:0E000000FF28063CFFB581FF03C003E003406C
:00000001FF
